{
  "contractName": "MarketPlace",
  "abi": [
    {
      "anonymous": false,
      "inputs": [
        {
          "indexed": false,
          "internalType": "uint256",
          "name": "id",
          "type": "uint256"
        },
        {
          "indexed": false,
          "internalType": "string",
          "name": "name",
          "type": "string"
        },
        {
          "indexed": false,
          "internalType": "uint256",
          "name": "price",
          "type": "uint256"
        },
        {
          "indexed": false,
          "internalType": "address payable",
          "name": "owner",
          "type": "address"
        },
        {
          "indexed": false,
          "internalType": "bool",
          "name": "purchased",
          "type": "bool"
        }
      ],
      "name": "ProductCreated",
      "type": "event"
    },
    {
      "anonymous": false,
      "inputs": [
        {
          "indexed": false,
          "internalType": "uint256",
          "name": "id",
          "type": "uint256"
        },
        {
          "indexed": false,
          "internalType": "string",
          "name": "name",
          "type": "string"
        },
        {
          "indexed": false,
          "internalType": "uint256",
          "name": "price",
          "type": "uint256"
        },
        {
          "indexed": false,
          "internalType": "address payable",
          "name": "owner",
          "type": "address"
        },
        {
          "indexed": false,
          "internalType": "bool",
          "name": "purchased",
          "type": "bool"
        }
      ],
      "name": "ProductPurchased",
      "type": "event"
    },
    {
      "inputs": [],
      "name": "name",
      "outputs": [
        {
          "internalType": "string",
          "name": "",
          "type": "string"
        }
      ],
      "stateMutability": "view",
      "type": "function",
      "constant": true
    },
    {
      "inputs": [],
      "name": "productCount",
      "outputs": [
        {
          "internalType": "uint256",
          "name": "",
          "type": "uint256"
        }
      ],
      "stateMutability": "view",
      "type": "function",
      "constant": true
    },
    {
      "inputs": [
        {
          "internalType": "uint256",
          "name": "",
          "type": "uint256"
        }
      ],
      "name": "products",
      "outputs": [
        {
          "internalType": "uint256",
          "name": "id",
          "type": "uint256"
        },
        {
          "internalType": "string",
          "name": "name",
          "type": "string"
        },
        {
          "internalType": "uint256",
          "name": "price",
          "type": "uint256"
        },
        {
          "internalType": "address payable",
          "name": "owner",
          "type": "address"
        },
        {
          "internalType": "bool",
          "name": "purchased",
          "type": "bool"
        }
      ],
      "stateMutability": "view",
      "type": "function",
      "constant": true
    },
    {
      "inputs": [
        {
          "internalType": "string",
          "name": "_name",
          "type": "string"
        },
        {
          "internalType": "uint256",
          "name": "price",
          "type": "uint256"
        }
      ],
      "name": "addProduct",
      "outputs": [],
      "stateMutability": "payable",
      "type": "function",
      "payable": true
    },
    {
      "inputs": [
        {
          "internalType": "uint256",
          "name": "id",
          "type": "uint256"
        }
      ],
      "name": "buyProduct",
      "outputs": [],
      "stateMutability": "payable",
      "type": "function",
      "payable": true
    }
  ],
  "bytecode": "0x6080604052600060015534801561001557600080fd5b50610c1c806100256000396000f3fe60806040526004361061004a5760003560e01c806306fdde031461004f5780637acc0b201461007a5780638642269e146100bb578063b15247d9146100d7578063e0f6ef87146100f3575b600080fd5b34801561005b57600080fd5b5061006461011e565b6040516100719190610805565b60405180910390f35b34801561008657600080fd5b506100a1600480360381019061009c9190610871565b6101ac565b6040516100b2959493929190610909565b60405180910390f35b6100d560048036038101906100d09190610871565b610297565b005b6100f160048036038101906100ec9190610a98565b61056d565b005b3480156100ff57600080fd5b506101086106c3565b6040516101159190610af4565b60405180910390f35b6000805461012b90610b3e565b80601f016020809104026020016040519081016040528092919081815260200182805461015790610b3e565b80156101a45780601f10610179576101008083540402835291602001916101a4565b820191906000526020600020905b81548152906001019060200180831161018757829003601f168201915b505050505081565b60026020528060005260406000206000915090508060000154908060010180546101d590610b3e565b80601f016020809104026020016040519081016040528092919081815260200182805461020190610b3e565b801561024e5780601f106102235761010080835404028352916020019161024e565b820191906000526020600020905b81548152906001019060200180831161023157829003601f168201915b5050505050908060020154908060030160009054906101000a900473ffffffffffffffffffffffffffffffffffffffff16908060030160149054906101000a900460ff16905085565b6000600260008381526020019081526020016000206040518060a0016040529081600082015481526020016001820180546102d190610b3e565b80601f01602080910402602001604051908101604052809291908181526020018280546102fd90610b3e565b801561034a5780601f1061031f5761010080835404028352916020019161034a565b820191906000526020600020905b81548152906001019060200180831161032d57829003601f168201915b50505050508152602001600282015481526020016003820160009054906101000a900473ffffffffffffffffffffffffffffffffffffffff1673ffffffffffffffffffffffffffffffffffffffff1673ffffffffffffffffffffffffffffffffffffffff1681526020016003820160149054906101000a900460ff1615151515815250509050600081606001519050600033905080836060019073ffffffffffffffffffffffffffffffffffffffff16908173ffffffffffffffffffffffffffffffffffffffff1681525050600183608001901515908115158152505082600260008681526020019081526020016000206000820151816000015560208201518160010190805190602001906104619291906106c9565b506040820151816002015560608201518160030160006101000a81548173ffffffffffffffffffffffffffffffffffffffff021916908373ffffffffffffffffffffffffffffffffffffffff16021790555060808201518160030160146101000a81548160ff0219169083151502179055509050508173ffffffffffffffffffffffffffffffffffffffff166108fc349081150290604051600060405180830381858888f1935050505015801561051c573d6000803e3d6000fd5b507f79558d0d7d4d900e2f15c4cc0a665f1acdbe415e44de900ecdd1e5bf12b56f4e6001548460200151856040015184600160405161055f959493929190610909565b60405180910390a150505050565b6001600081548092919061058090610b9e565b919050555060003390506040518060a0016040528060015481526020018481526020018381526020018273ffffffffffffffffffffffffffffffffffffffff168152602001600015158152506002600060015481526020019081526020016000206000820151816000015560208201518160010190805190602001906106079291906106c9565b506040820151816002015560608201518160030160006101000a81548173ffffffffffffffffffffffffffffffffffffffff021916908373ffffffffffffffffffffffffffffffffffffffff16021790555060808201518160030160146101000a81548160ff0219169083151502179055509050507fbc59c0c8165864dcceb377dd07d8f431d4303f8e501cb0a0374a10cc68d7183660015484848460006040516106b6959493929190610909565b60405180910390a1505050565b60015481565b8280546106d590610b3e565b90600052602060002090601f0160209004810192826106f7576000855561073e565b82601f1061071057805160ff191683800117855561073e565b8280016001018555821561073e579182015b8281111561073d578251825591602001919060010190610722565b5b50905061074b919061074f565b5090565b5b80821115610768576000816000905550600101610750565b5090565b600081519050919050565b600082825260208201905092915050565b60005b838110156107a657808201518184015260208101905061078b565b838111156107b5576000848401525b50505050565b6000601f19601f8301169050919050565b60006107d78261076c565b6107e18185610777565b93506107f1818560208601610788565b6107fa816107bb565b840191505092915050565b6000602082019050818103600083015261081f81846107cc565b905092915050565b6000604051905090565b600080fd5b600080fd5b6000819050919050565b61084e8161083b565b811461085957600080fd5b50565b60008135905061086b81610845565b92915050565b60006020828403121561088757610886610831565b5b60006108958482850161085c565b91505092915050565b6108a78161083b565b82525050565b600073ffffffffffffffffffffffffffffffffffffffff82169050919050565b60006108d8826108ad565b9050919050565b6108e8816108cd565b82525050565b60008115159050919050565b610903816108ee565b82525050565b600060a08201905061091e600083018861089e565b818103602083015261093081876107cc565b905061093f604083018661089e565b61094c60608301856108df565b61095960808301846108fa565b9695505050505050565b600080fd5b600080fd5b7f4e487b7100000000000000000000000000000000000000000000000000000000600052604160045260246000fd5b6109a5826107bb565b810181811067ffffffffffffffff821117156109c4576109c361096d565b5b80604052505050565b60006109d7610827565b90506109e3828261099c565b919050565b600067ffffffffffffffff821115610a0357610a0261096d565b5b610a0c826107bb565b9050602081019050919050565b82818337600083830152505050565b6000610a3b610a36846109e8565b6109cd565b905082815260208101848484011115610a5757610a56610968565b5b610a62848285610a19565b509392505050565b600082601f830112610a7f57610a7e610963565b5b8135610a8f848260208601610a28565b91505092915050565b60008060408385031215610aaf57610aae610831565b5b600083013567ffffffffffffffff811115610acd57610acc610836565b5b610ad985828601610a6a565b9250506020610aea8582860161085c565b9150509250929050565b6000602082019050610b09600083018461089e565b92915050565b7f4e487b7100000000000000000000000000000000000000000000000000000000600052602260045260246000fd5b60006002820490506001821680610b5657607f821691505b602082108103610b6957610b68610b0f565b5b50919050565b7f4e487b7100000000000000000000000000000000000000000000000000000000600052601160045260246000fd5b6000610ba98261083b565b91507fffffffffffffffffffffffffffffffffffffffffffffffffffffffffffffffff8203610bdb57610bda610b6f565b5b60018201905091905056fea26469706673582212200bdd2fd09f6ee6412b474b08688b708e8b081dc18444a51c1401a33bfe6ccfa864736f6c634300080d0033",
  "immutableReferences": {},
  "source": "// SPDX-License-Identifier: MIT\n// Tells the Solidity compiler to compile only from v0.8.13 to v0.9.0\npragma solidity ^0.8.13;\n\n// Create a marketplace to sell and buy items\ncontract MarketPlace {\n    string public name;\n    uint public productCount = 0;\n    mapping(uint => Product) public products;\n\n    struct Product {\n        uint id;\n        string name;\n        uint price;\n        address payable owner;\n        bool purchased;\n    }\n\n    event ProductCreated(\n        uint id,\n        string name,\n        uint price,\n        address payable owner,\n        bool purchased\n    );\n\n    event ProductPurchased(\n        uint id,\n        string name,\n        uint price,\n        address payable owner,\n        bool purchased\n    );\n\n    function addProduct(string memory _name, uint price) public payable {\n        // require(bytes(_name).length > 0, \"Name is required\");\n        // require(price > 0, \"Price must be greater than 0\");\n        productCount++;\n        address payable sender = payable(msg.sender);\n        products[productCount] = Product(\n            productCount,\n            _name,\n            price,\n            sender,\n            false\n        );\n        emit ProductCreated(productCount, _name, price, sender, false);\n    }\n\n    function buyProduct(uint id) public payable {\n        Product memory _product = products[id];\n        address payable _seller = _product.owner;\n        address payable _buyer = payable(msg.sender);\n\n        // require(_product.id > 0 && _product.id <= productCount);\n        // require(msg.value >= _product.price * (1 ether));\n        // require(!_product.purchased);\n\n        _product.owner = _buyer;\n        _product.purchased = true;\n        products[id] = _product;\n        payable(_seller).transfer(msg.value);\n\n        emit ProductPurchased(\n            productCount,\n            _product.name,\n            _product.price,\n            _buyer,\n            true\n        );\n    }\n}\n",
  "sourcePath": "/home/ntl870/blockchain/marketplace-dapp/contracts/MarketPlace.sol",
  "compiler": {
    "name": "solc",
    "version": "0.8.13+commit.abaa5c0e.Emscripten.clang"
  },
  "schemaVersion": "3.4.1",
  "updatedAt": "2022-12-06T13:59:07.241Z",
  "networkType": "ethereum",
  "devdoc": {
    "kind": "dev",
    "methods": {},
    "version": 1
  },
  "userdoc": {
    "kind": "user",
    "methods": {},
    "version": 1
  }
}